{
  "contractName": "Bridge",
  "abi": [
    {
      "inputs": [
        {
          "internalType": "uint256",
          "name": "threshold",
          "type": "uint256"
        },
        {
          "internalType": "uint256",
          "name": "maxPermissibleValidatorCount",
          "type": "uint256"
        },
        {
          "internalType": "uint256",
          "name": "transferFee",
          "type": "uint256"
        },
        {
          "internalType": "uint256",
          "name": "coinDailyLimit",
          "type": "uint256"
        }
      ],
      "stateMutability": "nonpayable",
      "type": "constructor"
    },
    {
      "anonymous": false,
      "inputs": [
        {
          "indexed": false,
          "internalType": "string",
          "name": "receiver",
          "type": "string"
        },
        {
          "indexed": false,
          "internalType": "address",
          "name": "sender",
          "type": "address"
        },
        {
          "indexed": false,
          "internalType": "uint256",
          "name": "amount",
          "type": "uint256"
        },
        {
          "indexed": false,
          "internalType": "address",
          "name": "asset",
          "type": "address"
        },
        {
          "indexed": false,
          "internalType": "uint256",
          "name": "transferNonce",
          "type": "uint256"
        },
        {
          "indexed": false,
          "internalType": "uint256",
          "name": "timestamp",
          "type": "uint256"
        }
      ],
      "name": "Transfer",
      "type": "event"
    },
    {
      "inputs": [
        {
          "internalType": "address",
          "name": "",
          "type": "address"
        }
      ],
      "name": "dailyLimit",
      "outputs": [
        {
          "internalType": "uint256",
          "name": "",
          "type": "uint256"
        }
      ],
      "stateMutability": "view",
      "type": "function"
    },
    {
      "inputs": [
        {
          "internalType": "address",
          "name": "",
          "type": "address"
        }
      ],
      "name": "dailySpend",
      "outputs": [
        {
          "internalType": "uint256",
          "name": "",
          "type": "uint256"
        }
      ],
      "stateMutability": "view",
      "type": "function"
    },
    {
      "inputs": [],
      "name": "fee",
      "outputs": [
        {
          "internalType": "uint256",
          "name": "",
          "type": "uint256"
        }
      ],
      "stateMutability": "view",
      "type": "function"
    },
    {
      "inputs": [
        {
          "internalType": "address",
          "name": "",
          "type": "address"
        }
      ],
      "name": "tokenBalances",
      "outputs": [
        {
          "internalType": "uint256",
          "name": "",
          "type": "uint256"
        }
      ],
      "stateMutability": "view",
      "type": "function"
    },
    {
      "inputs": [
        {
          "internalType": "address",
          "name": "",
          "type": "address"
        }
      ],
      "name": "tokens",
      "outputs": [
        {
          "internalType": "bool",
          "name": "",
          "type": "bool"
        }
      ],
      "stateMutability": "view",
      "type": "function"
    },
    {
      "inputs": [
        {
          "internalType": "address",
          "name": "",
          "type": "address"
        }
      ],
      "name": "validators",
      "outputs": [
        {
          "internalType": "bool",
          "name": "",
          "type": "bool"
        }
      ],
      "stateMutability": "view",
      "type": "function"
    },
    {
      "inputs": [
        {
          "internalType": "address",
          "name": "",
          "type": "address"
        }
      ],
      "name": "workers",
      "outputs": [
        {
          "internalType": "bool",
          "name": "",
          "type": "bool"
        }
      ],
      "stateMutability": "view",
      "type": "function"
    },
    {
      "inputs": [
        {
          "internalType": "address",
          "name": "newOwner",
          "type": "address"
        }
      ],
      "name": "transferOwnership",
      "outputs": [],
      "stateMutability": "nonpayable",
      "type": "function"
    },
    {
      "inputs": [
        {
          "internalType": "uint256",
          "name": "newFee",
          "type": "uint256"
        }
      ],
      "name": "setFee",
      "outputs": [],
      "stateMutability": "nonpayable",
      "type": "function"
    },
    {
      "inputs": [
        {
          "internalType": "address",
          "name": "newValidator",
          "type": "address"
        }
      ],
      "name": "addValidator",
      "outputs": [],
      "stateMutability": "nonpayable",
      "type": "function"
    },
    {
      "inputs": [
        {
          "internalType": "address",
          "name": "removedValidator",
          "type": "address"
        }
      ],
      "name": "removeValidator",
      "outputs": [],
      "stateMutability": "nonpayable",
      "type": "function"
    },
    {
      "inputs": [
        {
          "internalType": "address",
          "name": "newWorker",
          "type": "address"
        }
      ],
      "name": "addWorker",
      "outputs": [],
      "stateMutability": "nonpayable",
      "type": "function"
    },
    {
      "inputs": [
        {
          "internalType": "address",
          "name": "removedWorker",
          "type": "address"
        }
      ],
      "name": "removeWorker",
      "outputs": [],
      "stateMutability": "nonpayable",
      "type": "function"
    },
    {
      "inputs": [
        {
          "internalType": "uint256",
          "name": "newSignaturesThreshold",
          "type": "uint256"
        }
      ],
      "name": "setThreshold",
      "outputs": [],
      "stateMutability": "nonpayable",
      "type": "function"
    },
    {
      "inputs": [
        {
          "internalType": "address",
          "name": "newToken",
          "type": "address"
        },
        {
          "internalType": "uint256",
          "name": "tokenDailyLimit",
          "type": "uint256"
        }
      ],
      "name": "addToken",
      "outputs": [],
      "stateMutability": "nonpayable",
      "type": "function"
    },
    {
      "inputs": [
        {
          "internalType": "address",
          "name": "removedToken",
          "type": "address"
        }
      ],
      "name": "removeToken",
      "outputs": [],
      "stateMutability": "nonpayable",
      "type": "function"
    },
    {
      "inputs": [
        {
          "internalType": "uint256",
          "name": "newLimit",
          "type": "uint256"
        },
        {
          "internalType": "address",
          "name": "assetLimited",
          "type": "address"
        }
      ],
      "name": "setDailyLimit",
      "outputs": [],
      "stateMutability": "nonpayable",
      "type": "function"
    },
    {
      "inputs": [
        {
          "internalType": "uint256",
          "name": "newTxExpirationTime",
          "type": "uint256"
        }
      ],
      "name": "setTxExpirationTime",
      "outputs": [],
      "stateMutability": "nonpayable",
      "type": "function"
    },
    {
      "inputs": [
        {
          "internalType": "address",
          "name": "assetAddress",
          "type": "address"
        }
      ],
      "name": "checkAsset",
      "outputs": [
        {
          "internalType": "bool",
          "name": "",
          "type": "bool"
        }
      ],
      "stateMutability": "view",
      "type": "function"
    },
    {
      "inputs": [
        {
          "components": [
            {
              "internalType": "uint256",
              "name": "chainId",
              "type": "uint256"
            },
            {
              "internalType": "address payable",
              "name": "receiver",
              "type": "address"
            },
            {
              "internalType": "string",
              "name": "sender",
              "type": "string"
            },
            {
              "internalType": "uint256",
              "name": "timestamp",
              "type": "uint256"
            },
            {
              "internalType": "uint256",
              "name": "amount",
              "type": "uint256"
            },
            {
              "internalType": "address",
              "name": "asset",
              "type": "address"
            },
            {
              "internalType": "uint256",
              "name": "transferNonce",
              "type": "uint256"
            }
          ],
          "internalType": "struct Bridge.SwapMessage",
          "name": "transferInfo",
          "type": "tuple"
        }
      ],
      "name": "hashMessage",
      "outputs": [
        {
          "internalType": "bytes32",
          "name": "",
          "type": "bytes32"
        }
      ],
      "stateMutability": "pure",
      "type": "function"
    },
    {
      "inputs": [
        {
          "components": [
            {
              "internalType": "uint256",
              "name": "chainId",
              "type": "uint256"
            },
            {
              "internalType": "address payable",
              "name": "receiver",
              "type": "address"
            },
            {
              "internalType": "string",
              "name": "sender",
              "type": "string"
            },
            {
              "internalType": "uint256",
              "name": "timestamp",
              "type": "uint256"
            },
            {
              "internalType": "uint256",
              "name": "amount",
              "type": "uint256"
            },
            {
              "internalType": "address",
              "name": "asset",
              "type": "address"
            },
            {
              "internalType": "uint256",
              "name": "transferNonce",
              "type": "uint256"
            }
          ],
          "internalType": "struct Bridge.SwapMessage",
          "name": "transferInfo",
          "type": "tuple"
        },
        {
          "internalType": "bytes",
          "name": "signature",
          "type": "bytes"
        }
      ],
      "name": "getSigner",
      "outputs": [
        {
          "internalType": "address",
          "name": "",
          "type": "address"
        }
      ],
      "stateMutability": "pure",
      "type": "function"
    },
    {
      "inputs": [
        {
          "components": [
            {
              "internalType": "uint256",
              "name": "chainId",
              "type": "uint256"
            },
            {
              "internalType": "address payable",
              "name": "receiver",
              "type": "address"
            },
            {
              "internalType": "string",
              "name": "sender",
              "type": "string"
            },
            {
              "internalType": "uint256",
              "name": "timestamp",
              "type": "uint256"
            },
            {
              "internalType": "uint256",
              "name": "amount",
              "type": "uint256"
            },
            {
              "internalType": "address",
              "name": "asset",
              "type": "address"
            },
            {
              "internalType": "uint256",
              "name": "transferNonce",
              "type": "uint256"
            }
          ],
          "internalType": "struct Bridge.SwapMessage",
          "name": "transferInfo",
          "type": "tuple"
        },
        {
          "internalType": "bytes[]",
          "name": "signatures",
          "type": "bytes[]"
        }
      ],
      "name": "requestSwap",
      "outputs": [
        {
          "internalType": "bool",
          "name": "",
          "type": "bool"
        }
      ],
      "stateMutability": "nonpayable",
      "type": "function"
    },
    {
      "inputs": [
        {
          "internalType": "string",
          "name": "receiver",
          "type": "string"
        }
      ],
      "name": "transferCoin",
      "outputs": [],
      "stateMutability": "payable",
      "type": "function"
    },
    {
      "inputs": [
        {
          "internalType": "string",
          "name": "receiver",
          "type": "string"
        },
        {
          "internalType": "uint256",
          "name": "amount",
          "type": "uint256"
        },
        {
          "internalType": "address",
          "name": "asset",
          "type": "address"
        }
      ],
      "name": "transferToken",
      "outputs": [],
      "stateMutability": "nonpayable",
      "type": "function"
    }
  ],
  "bytecode": "0x60806040523480156200001157600080fd5b5060405162003d6738038062003d67833981810160405262000037919081019062000148565b33600b60006101000a81548173ffffffffffffffffffffffffffffffffffffffff021916908373ffffffffffffffffffffffffffffffffffffffff16021790555083600881905550826009819055508160068190555062015180600a8190555080600460008073ffffffffffffffffffffffffffffffffffffffff1673ffffffffffffffffffffffffffffffffffffffff1681526020019081526020016000208190555042600760008073ffffffffffffffffffffffffffffffffffffffff1673ffffffffffffffffffffffffffffffffffffffff168152602001908152602001600020819055506000600c8190555050505050620001d8565b6000815190506200014281620001be565b92915050565b600080600080608085870312156200015f57600080fd5b60006200016f8782880162000131565b9450506020620001828782880162000131565b9350506040620001958782880162000131565b9250506060620001a88782880162000131565b91505092959194509250565b6000819050919050565b620001c981620001b4565b8114620001d557600080fd5b50565b613b7f80620001e86000396000f3fe60806040526004361061014b5760003560e01c8063806ad57e116100b6578063ddca3f431161006f578063ddca3f431461049d578063ddcbc1b3146104c8578063e486033914610505578063f2fde38b14610542578063f3f514151461056b578063fa52c7d8146105a85761014b565b8063806ad57e1461039357806382e48439146103bc578063960bfe04146103e5578063af81c5b91461040e578063c4f987a514610437578063d94bff13146104605761014b565b8063511ae63f11610108578063511ae63f14610275578063523fba7f146102b257806355d6904f146102ef5780635fa7b5841461031857806369fe0e2d146103415780637e5fcff31461036a5761014b565b806319e6fcd51461015057806328123dd71461016c57806330412ea2146101a95780634048a257146101e657806340a141ff146102235780634d238c8e1461024c575b600080fd5b61016a600480360361016591908101906127b4565b6105e5565b005b34801561017857600080fd5b50610193600480360361018e919081019061285c565b610681565b6040516101a091906133fa565b60405180910390f35b3480156101b557600080fd5b506101d060048036036101cb9190810190612909565b6106d9565b6040516101dd9190613380565b60405180910390f35b3480156101f257600080fd5b5061020d600480360361020891908101906126fd565b610700565b60405161021a91906133df565b60405180910390f35b34801561022f57600080fd5b5061024a600480360361024591908101906126fd565b610720565b005b34801561025857600080fd5b50610273600480360361026e91908101906126fd565b61080b565b005b34801561028157600080fd5b5061029c600480360361029791908101906126fd565b6108f6565b6040516102a9919061380e565b60405180910390f35b3480156102be57600080fd5b506102d960048036036102d491908101906126fd565b61090e565b6040516102e6919061380e565b60405180910390f35b3480156102fb57600080fd5b50610316600480360361031191908101906127f5565b610926565b005b34801561032457600080fd5b5061033f600480360361033a91908101906126fd565b610be5565b005b34801561034d57600080fd5b5061036860048036036103639190810190612975565b610d5a565b005b34801561037657600080fd5b50610391600480360361038c9190810190612975565b610df4565b005b34801561039f57600080fd5b506103ba60048036036103b591908101906126fd565b610e8e565b005b3480156103c857600080fd5b506103e360048036036103de91908101906129c7565b610f79565b005b3480156103f157600080fd5b5061040c60048036036104079190810190612975565b6110dd565b005b34801561041a57600080fd5b5061043560048036036104309190810190612726565b611177565b005b34801561044357600080fd5b5061045e600480360361045991908101906126fd565b6112ea565b005b34801561046c57600080fd5b50610487600480360361048291908101906126fd565b6113d5565b60405161049491906133df565b60405180910390f35b3480156104a957600080fd5b506104b2611472565b6040516104bf919061380e565b60405180910390f35b3480156104d457600080fd5b506104ef60048036036104ea919081019061289d565b611478565b6040516104fc91906133df565b60405180910390f35b34801561051157600080fd5b5061052c600480360361052791908101906126fd565b6117d7565b60405161053991906133df565b60405180910390f35b34801561054e57600080fd5b50610569600480360361056491908101906126fd565b6117f7565b005b34801561057757600080fd5b50610592600480360361058d91908101906126fd565b6118cb565b60405161059f919061380e565b60405180910390f35b3480156105b457600080fd5b506105cf60048036036105ca91908101906126fd565b6118e3565b6040516105dc91906133df565b60405180910390f35b60003411610628576040517f08c379a000000000000000000000000000000000000000000000000000000000815260040161061f9061374c565b60405180910390fd5b600c600081548092919060010191905055507f33993749003b63278b6775e7eaff2b51d1f4995d3bcd18d1410de4ba6521b9288133346000600c54426040516106769695949392919061347c565b60405180910390a150565b6000816000015182602001518360400151846060015185608001518660a001518760c001516040516020016106bc9796959493929190613829565b604051602081830303815290604052805190602001209050919050565b6000806106e584610681565b905060006106f38285611903565b9050809250505092915050565b60036020528060005260406000206000915054906101000a900460ff1681565b600b60009054906101000a900473ffffffffffffffffffffffffffffffffffffffff1673ffffffffffffffffffffffffffffffffffffffff163373ffffffffffffffffffffffffffffffffffffffff16146107b0576040517f08c379a00000000000000000000000000000000000000000000000000000000081526004016107a79061356c565b60405180910390fd5b6000600260008373ffffffffffffffffffffffffffffffffffffffff1673ffffffffffffffffffffffffffffffffffffffff16815260200190815260200160002060006101000a81548160ff02191690831515021790555050565b600b60009054906101000a900473ffffffffffffffffffffffffffffffffffffffff1673ffffffffffffffffffffffffffffffffffffffff163373ffffffffffffffffffffffffffffffffffffffff161461089b576040517f08c379a00000000000000000000000000000000000000000000000000000000081526004016108929061356c565b60405180910390fd5b6001600260008373ffffffffffffffffffffffffffffffffffffffff1673ffffffffffffffffffffffffffffffffffffffff16815260200190815260200160002060006101000a81548160ff02191690831515021790555050565b60056020528060005260406000206000915090505481565b60006020528060005260406000206000915090505481565b3073ffffffffffffffffffffffffffffffffffffffff1663d94bff13826040518263ffffffff1660e01b815260040161095f9190613380565b60206040518083038186803b15801561097757600080fd5b505afa15801561098b573d6000803e3d6000fd5b505050506040513d601f19601f820116820180604052506109af9190810190612762565b6109ee576040517f08c379a00000000000000000000000000000000000000000000000000000000081526004016109e5906137ac565b60405180910390fd5b6000819050828173ffffffffffffffffffffffffffffffffffffffff166370a08231336040518263ffffffff1660e01b8152600401610a2d919061339b565b60206040518083038186803b158015610a4557600080fd5b505afa158015610a59573d6000803e3d6000fd5b505050506040513d601f19601f82011682018060405250610a7d919081019061299e565b1015610abe576040517f08c379a0000000000000000000000000000000000000000000000000000000008152600401610ab59061368c565b60405180910390fd5b8073ffffffffffffffffffffffffffffffffffffffff16639dc29fac33856040518363ffffffff1660e01b8152600401610af99291906133b6565b602060405180830381600087803b158015610b1357600080fd5b505af1158015610b27573d6000803e3d6000fd5b505050506040513d601f19601f82011682018060405250610b4b9190810190612762565b610b8a576040517f08c379a0000000000000000000000000000000000000000000000000000000008152600401610b819061358c565b60405180910390fd5b600c600081548092919060010191905055507f33993749003b63278b6775e7eaff2b51d1f4995d3bcd18d1410de4ba6521b92884338585600c5442604051610bd7969594939291906134e4565b60405180910390a150505050565b600b60009054906101000a900473ffffffffffffffffffffffffffffffffffffffff1673ffffffffffffffffffffffffffffffffffffffff163373ffffffffffffffffffffffffffffffffffffffff1614610c75576040517f08c379a0000000000000000000000000000000000000000000000000000000008152600401610c6c9061356c565b60405180910390fd5b6000600160008373ffffffffffffffffffffffffffffffffffffffff1673ffffffffffffffffffffffffffffffffffffffff16815260200190815260200160002060006101000a81548160ff0219169083151502179055506000600460008373ffffffffffffffffffffffffffffffffffffffff1673ffffffffffffffffffffffffffffffffffffffff168152602001908152602001600020819055506000600760008373ffffffffffffffffffffffffffffffffffffffff1673ffffffffffffffffffffffffffffffffffffffff1681526020019081526020016000208190555050565b600b60009054906101000a900473ffffffffffffffffffffffffffffffffffffffff1673ffffffffffffffffffffffffffffffffffffffff163373ffffffffffffffffffffffffffffffffffffffff1614610dea576040517f08c379a0000000000000000000000000000000000000000000000000000000008152600401610de19061356c565b60405180910390fd5b8060068190555050565b600b60009054906101000a900473ffffffffffffffffffffffffffffffffffffffff1673ffffffffffffffffffffffffffffffffffffffff163373ffffffffffffffffffffffffffffffffffffffff1614610e84576040517f08c379a0000000000000000000000000000000000000000000000000000000008152600401610e7b9061356c565b60405180910390fd5b80600a8190555050565b600b60009054906101000a900473ffffffffffffffffffffffffffffffffffffffff1673ffffffffffffffffffffffffffffffffffffffff163373ffffffffffffffffffffffffffffffffffffffff1614610f1e576040517f08c379a0000000000000000000000000000000000000000000000000000000008152600401610f159061356c565b60405180910390fd5b6001600360008373ffffffffffffffffffffffffffffffffffffffff1673ffffffffffffffffffffffffffffffffffffffff16815260200190815260200160002060006101000a81548160ff02191690831515021790555050565b600b60009054906101000a900473ffffffffffffffffffffffffffffffffffffffff1673ffffffffffffffffffffffffffffffffffffffff163373ffffffffffffffffffffffffffffffffffffffff1614611009576040517f08c379a00000000000000000000000000000000000000000000000000000000081526004016110009061356c565b60405180910390fd5b600160008273ffffffffffffffffffffffffffffffffffffffff1673ffffffffffffffffffffffffffffffffffffffff16815260200190815260200160002060009054906101000a900460ff16611095576040517f08c379a000000000000000000000000000000000000000000000000000000000815260040161108c9061370c565b60405180910390fd5b81600460008373ffffffffffffffffffffffffffffffffffffffff1673ffffffffffffffffffffffffffffffffffffffff168152602001908152602001600020819055505050565b600b60009054906101000a900473ffffffffffffffffffffffffffffffffffffffff1673ffffffffffffffffffffffffffffffffffffffff163373ffffffffffffffffffffffffffffffffffffffff161461116d576040517f08c379a00000000000000000000000000000000000000000000000000000000081526004016111649061356c565b60405180910390fd5b8060088190555050565b600b60009054906101000a900473ffffffffffffffffffffffffffffffffffffffff1673ffffffffffffffffffffffffffffffffffffffff163373ffffffffffffffffffffffffffffffffffffffff1614611207576040517f08c379a00000000000000000000000000000000000000000000000000000000081526004016111fe9061356c565b60405180910390fd5b60018060008473ffffffffffffffffffffffffffffffffffffffff1673ffffffffffffffffffffffffffffffffffffffff16815260200190815260200160002060006101000a81548160ff02191690831515021790555080600460008473ffffffffffffffffffffffffffffffffffffffff1673ffffffffffffffffffffffffffffffffffffffff1681526020019081526020016000208190555042600760008473ffffffffffffffffffffffffffffffffffffffff1673ffffffffffffffffffffffffffffffffffffffff168152602001908152602001600020819055505050565b600b60009054906101000a900473ffffffffffffffffffffffffffffffffffffffff1673ffffffffffffffffffffffffffffffffffffffff163373ffffffffffffffffffffffffffffffffffffffff161461137a576040517f08c379a00000000000000000000000000000000000000000000000000000000081526004016113719061356c565b60405180910390fd5b6000600360008373ffffffffffffffffffffffffffffffffffffffff1673ffffffffffffffffffffffffffffffffffffffff16815260200190815260200160002060006101000a81548160ff02191690831515021790555050565b60008073ffffffffffffffffffffffffffffffffffffffff168273ffffffffffffffffffffffffffffffffffffffff16148061145a5750600160008373ffffffffffffffffffffffffffffffffffffffff1673ffffffffffffffffffffffffffffffffffffffff16815260200190815260200160002060009054906101000a900460ff165b15611468576001905061146d565b600090505b919050565b60065481565b6000600360003373ffffffffffffffffffffffffffffffffffffffff1673ffffffffffffffffffffffffffffffffffffffff16815260200190815260200160002060009054906101000a900460ff16611506576040517f08c379a00000000000000000000000000000000000000000000000000000000081526004016114fd9061378c565b60405180910390fd5b6115138360600151611af4565b611552576040517f08c379a00000000000000000000000000000000000000000000000000000000081526004016115499061372c565b60405180910390fd5b3073ffffffffffffffffffffffffffffffffffffffff1663d94bff138460a001516040518263ffffffff1660e01b815260040161158f9190613380565b60206040518083038186803b1580156115a757600080fd5b505afa1580156115bb573d6000803e3d6000fd5b505050506040513d601f19601f820116820180604052506115df9190810190612762565b61161e576040517f08c379a0000000000000000000000000000000000000000000000000000000008152600401611615906137ac565b60405180910390fd5b826020015173ffffffffffffffffffffffffffffffffffffffff16836020015173ffffffffffffffffffffffffffffffffffffffff1614611694576040517f08c379a000000000000000000000000000000000000000000000000000000000815260040161168b9061366c565b60405180910390fd5b6008548251101580156116aa5750600954825111155b6116e9576040517f08c379a00000000000000000000000000000000000000000000000000000000081526004016116e09061376c565b60405180910390fd5b60003073ffffffffffffffffffffffffffffffffffffffff166328123dd7856040518263ffffffff1660e01b815260040161172491906137ec565b60206040518083038186803b15801561173c57600080fd5b505afa158015611750573d6000803e3d6000fd5b505050506040513d601f19601f82011682018060405250611774919081019061278b565b90506117808184611b2b565b6117bf576040517f08c379a00000000000000000000000000000000000000000000000000000000081526004016117b6906135cc565b60405180910390fd5b60006117ca85611c75565b9050809250505092915050565b60016020528060005260406000206000915054906101000a900460ff1681565b600b60009054906101000a900473ffffffffffffffffffffffffffffffffffffffff1673ffffffffffffffffffffffffffffffffffffffff163373ffffffffffffffffffffffffffffffffffffffff1614611887576040517f08c379a000000000000000000000000000000000000000000000000000000000815260040161187e9061356c565b60405180910390fd5b80600b60006101000a81548173ffffffffffffffffffffffffffffffffffffffff021916908373ffffffffffffffffffffffffffffffffffffffff16021790555050565b60046020528060005260406000206000915090505481565b60026020528060005260406000206000915054906101000a900460ff1681565b60006041825114611949576040517f08c379a0000000000000000000000000000000000000000000000000000000008152600401611940906135ac565b60405180910390fd5b60008060006020850151925060408501519150606085015160001a90507f7fffffffffffffffffffffffffffffff5d576e7357a4501ddfe92f46681b20a08260001c11156119cc576040517f08c379a00000000000000000000000000000000000000000000000000000000081526004016119c39061364c565b60405180910390fd5b601b8160ff16141580156119e45750601c8160ff1614155b15611a24576040517f08c379a0000000000000000000000000000000000000000000000000000000008152600401611a1b906136ac565b60405180910390fd5b600060018783868660405160008152602001604052604051611a499493929190613415565b6020604051602081039080840390855afa158015611a6b573d6000803e3d6000fd5b505050602060405103519050600073ffffffffffffffffffffffffffffffffffffffff168173ffffffffffffffffffffffffffffffffffffffff161415611ae7576040517f08c379a0000000000000000000000000000000000000000000000000000000008152600401611ade9061354c565b60405180910390fd5b8094505050505092915050565b600080429050600a54611b10848361207490919063ffffffff16565b1115611b20576000915050611b26565b60019150505b919050565b600060608251604051908082528060200260200182016040528015611b5f5781602001602082028038833980820191505090505b50905060008090505b8351811015611c68576000611b9086868481518110611b8357fe5b6020026020010151611903565b9050600260008273ffffffffffffffffffffffffffffffffffffffff1673ffffffffffffffffffffffffffffffffffffffff16815260200190815260200160002060009054906101000a900460ff16611bef5760009350505050611c6f565b6000821115611c1357611c0281846120be565b611c125760009350505050611c6f565b5b80838381518110611c2057fe5b602002602001019073ffffffffffffffffffffffffffffffffffffffff16908173ffffffffffffffffffffffffffffffffffffffff1681525050508080600101915050611b68565b5060019150505b92915050565b600080600460008460a0015173ffffffffffffffffffffffffffffffffffffffff1673ffffffffffffffffffffffffffffffffffffffff16815260200190815260200160002054905060008111611d01576040517f08c379a0000000000000000000000000000000000000000000000000000000008152600401611cf8906136ec565b60405180910390fd5b611d0e8360a00151612139565b80611d69600560008660a0015173ffffffffffffffffffffffffffffffffffffffff1673ffffffffffffffffffffffffffffffffffffffff16815260200190815260200160002054856080015161222890919063ffffffff16565b1115611daa576040517f08c379a0000000000000000000000000000000000000000000000000000000008152600401611da1906135ec565b60405180910390fd5b611e048360800151600560008660a0015173ffffffffffffffffffffffffffffffffffffffff1673ffffffffffffffffffffffffffffffffffffffff1681526020019081526020016000205461222890919063ffffffff16565b600560008560a0015173ffffffffffffffffffffffffffffffffffffffff1673ffffffffffffffffffffffffffffffffffffffff16815260200190815260200160002081905550600073ffffffffffffffffffffffffffffffffffffffff168360a0015173ffffffffffffffffffffffffffffffffffffffff161415611f48576000611ec8611eb56064611ea7600654886080015161227d90919063ffffffff16565b6122ed90919063ffffffff16565b856080015161207490919063ffffffff16565b9050836020015173ffffffffffffffffffffffffffffffffffffffff166108fc829081150290604051600060405180830381858888f19350505050611f42576040517f08c379a0000000000000000000000000000000000000000000000000000000008152600401611f39906137cc565b60405180910390fd5b5061206a565b6000611f8c611f796064611f6b600654886080015161227d90919063ffffffff16565b6122ed90919063ffffffff16565b856080015161207490919063ffffffff16565b905060008460a0015190508073ffffffffffffffffffffffffffffffffffffffff166340c10f198660200151846040518363ffffffff1660e01b8152600401611fd69291906133b6565b602060405180830381600087803b158015611ff057600080fd5b505af1158015612004573d6000803e3d6000fd5b505050506040513d601f19601f820116820180604052506120289190810190612762565b612067576040517f08c379a000000000000000000000000000000000000000000000000000000000815260040161205e9061362c565b60405180910390fd5b50505b6001915050919050565b60006120b683836040518060400160405280601e81526020017f536166654d6174683a207375627472616374696f6e206f766572666c6f770000815250612337565b905092915050565b600080600090505b825181101561212d578281815181106120db57fe5b602002602001015173ffffffffffffffffffffffffffffffffffffffff168473ffffffffffffffffffffffffffffffffffffffff161415612120576000915050612133565b80806001019150506120c6565b50600190505b92915050565b600042905062015180612194600760008573ffffffffffffffffffffffffffffffffffffffff1673ffffffffffffffffffffffffffffffffffffffff168152602001908152602001600020548361207490919063ffffffff16565b11156122245780600760008473ffffffffffffffffffffffffffffffffffffffff1673ffffffffffffffffffffffffffffffffffffffff168152602001908152602001600020819055506000600560008473ffffffffffffffffffffffffffffffffffffffff1673ffffffffffffffffffffffffffffffffffffffff168152602001908152602001600020819055505b5050565b600080828401905083811015612273576040517f08c379a000000000000000000000000000000000000000000000000000000000815260040161226a9061360c565b60405180910390fd5b8091505092915050565b60008083141561229057600090506122e7565b60008284029050828482816122a157fe5b04146122e2576040517f08c379a00000000000000000000000000000000000000000000000000000000081526004016122d9906136cc565b60405180910390fd5b809150505b92915050565b600061232f83836040518060400160405280601a81526020017f536166654d6174683a206469766973696f6e206279207a65726f000000000000815250612392565b905092915050565b600083831115829061237f576040517f08c379a0000000000000000000000000000000000000000000000000000000008152600401612376919061345a565b60405180910390fd5b5060008385039050809150509392505050565b600080831182906123d9576040517f08c379a00000000000000000000000000000000000000000000000000000000081526004016123d0919061345a565b60405180910390fd5b5060008385816123e557fe5b049050809150509392505050565b60008135905061240281613ad6565b92915050565b60008135905061241781613aed565b92915050565b600082601f83011261242e57600080fd5b813561244161243c826138cc565b61389f565b9150818183526020840193506020810190508360005b83811015612487578135860161246d88826124bb565b845260208401935060208301925050600181019050612457565b5050505092915050565b6000815190506124a081613b04565b92915050565b6000815190506124b581613b1b565b92915050565b600082601f8301126124cc57600080fd5b81356124df6124da826138f4565b61389f565b915080825260208301602083018583830111156124fb57600080fd5b612506838284613a83565b50505092915050565b600082601f83011261252057600080fd5b813561253361252e82613920565b61389f565b9150808252602083016020830185838301111561254f57600080fd5b61255a838284613a83565b50505092915050565b600082601f83011261257457600080fd5b81356125876125828261394c565b61389f565b915080825260208301602083018583830111156125a357600080fd5b6125ae838284613a83565b50505092915050565b600082601f8301126125c857600080fd5b81356125db6125d682613978565b61389f565b915080825260208301602083018583830111156125f757600080fd5b612602838284613a83565b50505092915050565b600060e0828403121561261d57600080fd5b61262760e061389f565b90506000612637848285016126d3565b600083015250602061264b84828501612408565b602083015250604082013567ffffffffffffffff81111561266b57600080fd5b61267784828501612563565b604083015250606061268b848285016126d3565b606083015250608061269f848285016126d3565b60808301525060a06126b3848285016123f3565b60a08301525060c06126c7848285016126d3565b60c08301525092915050565b6000813590506126e281613b32565b92915050565b6000815190506126f781613b32565b92915050565b60006020828403121561270f57600080fd5b600061271d848285016123f3565b91505092915050565b6000806040838503121561273957600080fd5b6000612747858286016123f3565b9250506020612758858286016126d3565b9150509250929050565b60006020828403121561277457600080fd5b600061278284828501612491565b91505092915050565b60006020828403121561279d57600080fd5b60006127ab848285016124a6565b91505092915050565b6000602082840312156127c657600080fd5b600082013567ffffffffffffffff8111156127e057600080fd5b6127ec848285016125b7565b91505092915050565b60008060006060848603121561280a57600080fd5b600084013567ffffffffffffffff81111561282457600080fd5b612830868287016125b7565b9350506020612841868287016126d3565b9250506040612852868287016123f3565b9150509250925092565b60006020828403121561286e57600080fd5b600082013567ffffffffffffffff81111561288857600080fd5b6128948482850161260b565b91505092915050565b600080604083850312156128b057600080fd5b600083013567ffffffffffffffff8111156128ca57600080fd5b6128d68582860161260b565b925050602083013567ffffffffffffffff8111156128f357600080fd5b6128ff8582860161241d565b9150509250929050565b6000806040838503121561291c57600080fd5b600083013567ffffffffffffffff81111561293657600080fd5b6129428582860161260b565b925050602083013567ffffffffffffffff81111561295f57600080fd5b61296b8582860161250f565b9150509250929050565b60006020828403121561298757600080fd5b6000612995848285016126d3565b91505092915050565b6000602082840312156129b057600080fd5b60006129be848285016126e8565b91505092915050565b600080604083850312156129da57600080fd5b60006129e8858286016126d3565b92505060206129f9858286016123f3565b9150509250929050565b612a0c81613a4d565b82525050565b612a1b816139ee565b82525050565b612a2a816139ee565b82525050565b612a39816139dc565b82525050565b612a48816139dc565b82525050565b612a5781613a00565b82525050565b612a6681613a0c565b82525050565b6000612a77826139af565b612a8181856139cb565b9350612a91818560208601613a92565b612a9a81613ac5565b840191505092915050565b6000612ab0826139a4565b612aba81856139ba565b9350612aca818560208601613a92565b612ad381613ac5565b840191505092915050565b6000612ae9826139a4565b612af381856139cb565b9350612b03818560208601613a92565b612b0c81613ac5565b840191505092915050565b6000612b246018836139cb565b91507f45434453413a20696e76616c6964207369676e617475726500000000000000006000830152602082019050919050565b6000612b646022836139cb565b91507f4f6e6c79206f776e65722063616e2063616c6c20746869732066756e6374696f60008301527f6e2e0000000000000000000000000000000000000000000000000000000000006020830152604082019050919050565b6000612bca6020836139cb565b91507f4572726f72207768696c65206275726e2073656e646572277320746f6b656e736000830152602082019050919050565b6000612c0a601f836139cb565b91507f45434453413a20696e76616c6964207369676e6174757265206c656e677468006000830152602082019050919050565b6000612c4a6021836139cb565b91507f5369676e61747572657320766572696669636174696f6e206973206661696c6560008301527f64000000000000000000000000000000000000000000000000000000000000006020830152604082019050919050565b6000612cb0602e836139cb565b91507f4461696c79206c696d69742068617320616c726561647920726561636865642060008301527f666f7220746869732061737365740000000000000000000000000000000000006020830152604082019050919050565b6000612d16601b836139cb565b91507f536166654d6174683a206164646974696f6e206f766572666c6f7700000000006000830152602082019050919050565b6000612d566028836139cb565b91507f4572726f72207768696c65206d696e7420746f6b656e7320666f72207468652060008301527f72656365697665720000000000000000000000000000000000000000000000006020830152604082019050919050565b6000612dbc6022836139cb565b91507f45434453413a20696e76616c6964207369676e6174757265202773272076616c60008301527f75650000000000000000000000000000000000000000000000000000000000006020830152604082019050919050565b6000612e226018836139cb565b91507f496e76616c6964207265636569766572206164647265737300000000000000006000830152602082019050919050565b6000612e626032836139cb565b91507f53656e64657220646f65736e2774206861766520656e6f75676820746f6b656e60008301527f7320746f206d616b65207472616e7366657200000000000000000000000000006020830152604082019050919050565b6000612ec86022836139cb565b91507f45434453413a20696e76616c6964207369676e6174757265202776272076616c60008301527f75650000000000000000000000000000000000000000000000000000000000006020830152604082019050919050565b6000612f2e6021836139cb565b91507f536166654d6174683a206d756c7469706c69636174696f6e206f766572666c6f60008301527f77000000000000000000000000000000000000000000000000000000000000006020830152604082019050919050565b6000612f946028836139cb565b91507f43616e2774207472616e7366657220617373657420776974686f75742064616960008301527f6c79206c696d69740000000000000000000000000000000000000000000000006020830152604082019050919050565b6000612ffa6030836139cb565b91507f5468657265206973206e6f207375636820616e20617373657420696e2074686560008301527f2042726964676520636f6e7472616374000000000000000000000000000000006020830152604082019050919050565b60006130606034836139cb565b91507f5472616e73616374696f6e2063616e27742062652073656e742062656361757360008301527f65206f662065787069726174696f6e2074696d650000000000000000000000006020830152604082019050919050565b60006130c66039836139cb565b91507f596f75206861766520746f2061747461636820736f6d6520616d6f756e74206f60008301527f662061737365747320746f206d616b65207472616e73666572000000000000006020830152604082019050919050565b600061312c602a836139cb565b91507f57726f6e6720636f756e74206f66207369676e61747572657320746f206d616b60008301527f65207472616e73666572000000000000000000000000000000000000000000006020830152604082019050919050565b60006131926023836139cb565b91507f4f6e6c7920776f726b65722063616e2063616c6c20746869732066756e63746960008301527f6f6e2e00000000000000000000000000000000000000000000000000000000006020830152604082019050919050565b60006131f86023836139cb565b91507f556e6b6e6f776e20617373657420697320747279696e6720746f207472616e7360008301527f66657200000000000000000000000000000000000000000000000000000000006020830152604082019050919050565b600061325e602a836139cb565b91507f4572726f72207768696c65207472616e7366657220636f696e7320746f20746860008301527f65207265636569766572000000000000000000000000000000000000000000006020830152604082019050919050565b600060e0830160008301516132cf6000860182613353565b5060208301516132e26020860182612a12565b50604083015184820360408601526132fa8282612aa5565b915050606083015161330f6060860182613353565b5060808301516133226080860182613353565b5060a083015161333560a0860182612a30565b5060c083015161334860c0860182613353565b508091505092915050565b61335c81613a36565b82525050565b61336b81613a36565b82525050565b61337a81613a40565b82525050565b60006020820190506133956000830184612a3f565b92915050565b60006020820190506133b06000830184612a03565b92915050565b60006040820190506133cb6000830185612a03565b6133d86020830184613362565b9392505050565b60006020820190506133f46000830184612a4e565b92915050565b600060208201905061340f6000830184612a5d565b92915050565b600060808201905061342a6000830187612a5d565b6134376020830186613371565b6134446040830185612a5d565b6134516060830184612a5d565b95945050505050565b600060208201905081810360008301526134748184612a6c565b905092915050565b600060c08201905081810360008301526134968189612a6c565b90506134a56020830188612a03565b6134b26040830187613362565b6134bf6060830186612a03565b6134cc6080830185613362565b6134d960a0830184613362565b979650505050505050565b600060c08201905081810360008301526134fe8189612a6c565b905061350d6020830188612a03565b61351a6040830187613362565b6135276060830186612a3f565b6135346080830185613362565b61354160a0830184613362565b979650505050505050565b6000602082019050818103600083015261356581612b17565b9050919050565b6000602082019050818103600083015261358581612b57565b9050919050565b600060208201905081810360008301526135a581612bbd565b9050919050565b600060208201905081810360008301526135c581612bfd565b9050919050565b600060208201905081810360008301526135e581612c3d565b9050919050565b6000602082019050818103600083015261360581612ca3565b9050919050565b6000602082019050818103600083015261362581612d09565b9050919050565b6000602082019050818103600083015261364581612d49565b9050919050565b6000602082019050818103600083015261366581612daf565b9050919050565b6000602082019050818103600083015261368581612e15565b9050919050565b600060208201905081810360008301526136a581612e55565b9050919050565b600060208201905081810360008301526136c581612ebb565b9050919050565b600060208201905081810360008301526136e581612f21565b9050919050565b6000602082019050818103600083015261370581612f87565b9050919050565b6000602082019050818103600083015261372581612fed565b9050919050565b6000602082019050818103600083015261374581613053565b9050919050565b60006020820190508181036000830152613765816130b9565b9050919050565b600060208201905081810360008301526137858161311f565b9050919050565b600060208201905081810360008301526137a581613185565b9050919050565b600060208201905081810360008301526137c5816131eb565b9050919050565b600060208201905081810360008301526137e581613251565b9050919050565b6000602082019050818103600083015261380681846132b7565b905092915050565b60006020820190506138236000830184613362565b92915050565b600060e08201905061383e600083018a613362565b61384b6020830189612a21565b818103604083015261385d8188612ade565b905061386c6060830187613362565b6138796080830186613362565b61388660a0830185612a3f565b61389360c0830184613362565b98975050505050505050565b6000604051905081810181811067ffffffffffffffff821117156138c257600080fd5b8060405250919050565b600067ffffffffffffffff8211156138e357600080fd5b602082029050602081019050919050565b600067ffffffffffffffff82111561390b57600080fd5b601f19601f8301169050602081019050919050565b600067ffffffffffffffff82111561393757600080fd5b601f19601f8301169050602081019050919050565b600067ffffffffffffffff82111561396357600080fd5b601f19601f8301169050602081019050919050565b600067ffffffffffffffff82111561398f57600080fd5b601f19601f8301169050602081019050919050565b600081519050919050565b600081519050919050565b600082825260208201905092915050565b600082825260208201905092915050565b60006139e782613a16565b9050919050565b60006139f982613a16565b9050919050565b60008115159050919050565b6000819050919050565b600073ffffffffffffffffffffffffffffffffffffffff82169050919050565b6000819050919050565b600060ff82169050919050565b6000613a5882613a5f565b9050919050565b6000613a6a82613a71565b9050919050565b6000613a7c82613a16565b9050919050565b82818337600083830152505050565b60005b83811015613ab0578082015181840152602081019050613a95565b83811115613abf576000848401525b50505050565b6000601f19601f8301169050919050565b613adf816139dc565b8114613aea57600080fd5b50565b613af6816139ee565b8114613b0157600080fd5b50565b613b0d81613a00565b8114613b1857600080fd5b50565b613b2481613a0c565b8114613b2f57600080fd5b50565b613b3b81613a36565b8114613b4657600080fd5b5056fea26469706673582212208d9e4031656e39ff9c1b86450b2938197c25caffbadffcc4055d94287ff4ac3264736f6c63430006000033",
  "source": "pragma solidity ^0.6.0;\npragma experimental ABIEncoderV2;\n\nimport \"./IERC20.sol\";\nimport \"./SafeMath.sol\";\n\n\ncontract Bridge {\n    using SafeMath for uint256;\n    \n    mapping(address => uint256) public tokenBalances;\n    mapping(address => bool) public tokens;\n    mapping(address => bool) public validators;\n    mapping(address => bool) public workers;\n    mapping(address => uint256) public dailyLimit;\n    mapping(address => uint256) public dailySpend;\n    uint256 public fee;\n\n    mapping(address => uint256) dailyLimitSetTime;\n    uint256 signatureThreshold;\n    uint256 maxvalidatorCount;\n    uint256 txExpirationTime;\n    address owner;\n    uint256 transferNonce;\n    \n    event Transfer(\n        string receiver,\n        address sender,\n        uint256 amount,\n        address asset,\n        uint256 transferNonce,\n        uint256 timestamp\n    );\n    \n    struct SwapMessage {\n        uint256 chainId;\n        address payable receiver;\n        string sender;\n        uint256 timestamp;\n        uint256 amount;\n        address asset;\n        uint256 transferNonce;\n    }\n    \n    modifier onlyOwner() {\n        require(\n            msg.sender == owner,\n            \"Only owner can call this function.\"\n        );\n        _;\n    }\n    \n    modifier onlyWorker() {\n        require(\n            workers[msg.sender],\n            \"Only worker can call this function.\"\n        );\n        _;\n    }\n    \n    constructor(uint256 threshold, uint256 maxPermissibleValidatorCount, uint256 transferFee, uint256 coinDailyLimit) public {\n        owner = msg.sender;\n        signatureThreshold = threshold;\n        maxvalidatorCount = maxPermissibleValidatorCount;\n        fee = transferFee;\n        txExpirationTime = 86400;  // 1 day by default\n        dailyLimit[address(0)] = coinDailyLimit;\n        dailyLimitSetTime[address(0)] = block.timestamp;\n        transferNonce = 0;\n    }\n    \n    function transferOwnership(address newOwner) public onlyOwner() {\n        owner = newOwner;\n    }\n    \n    function setFee(uint256 newFee) public onlyOwner() {\n        fee = newFee;\n    }\n    \n    function addValidator(address newValidator) public onlyOwner() {\n        validators[newValidator] = true;\n    }\n    \n    function removeValidator(address removedValidator) public onlyOwner() {\n        validators[removedValidator] = false;\n    }\n    \n    function addWorker(address newWorker) public onlyOwner() {\n        workers[newWorker] = true;\n    }\n    \n    function removeWorker(address removedWorker) public onlyOwner() {\n        workers[removedWorker] = false;\n    }\n    \n    function setThreshold(uint256 newSignaturesThreshold) public onlyOwner() {\n        signatureThreshold = newSignaturesThreshold;\n    }\n    \n    function addToken(address newToken, uint256 tokenDailyLimit) public onlyOwner() {\n        tokens[newToken] = true;\n        dailyLimit[newToken] = tokenDailyLimit;\n        dailyLimitSetTime[newToken] = block.timestamp;\n    }\n    \n    function removeToken(address removedToken) public onlyOwner() {\n        tokens[removedToken] = false;\n        dailyLimit[removedToken] = 0;\n        dailyLimitSetTime[removedToken] = 0;\n    }\n    \n    function setDailyLimit(uint256 newLimit, address assetLimited) public onlyOwner() {\n        require(tokens[assetLimited], \"There is no such an asset in the Bridge contract\");\n        dailyLimit[assetLimited] = newLimit;\n    }\n    \n    function setTxExpirationTime(uint256 newTxExpirationTime) public onlyOwner() {\n        txExpirationTime = newTxExpirationTime;\n    }\n    \n    function checkAsset(address assetAddress) public view returns (bool) {\n        if (assetAddress == address(0) || tokens[assetAddress]) {\n            return true;\n        } else {\n            return false;\n        }\n    }\n\n    function checkExpirationTime(uint256 txTime) private view returns (bool) {\n        uint currentTime = block.timestamp;\n        if (currentTime.sub(txTime) > txExpirationTime) {\n            return false;\n        } else {\n            return true;\n        }\n    }\n    \n    function hashMessage(SwapMessage memory transferInfo) public pure returns (bytes32) {\n        return keccak256(abi.encode(transferInfo.chainId, transferInfo.receiver, transferInfo.sender, transferInfo.timestamp, transferInfo.amount, transferInfo.asset, transferInfo.transferNonce));\n    }\n    \n    function verifySignatures(bytes32 signedMessage, bytes[] memory signatures) private view returns (bool) {\n        address[] memory signers = new address[](signatures.length);\n        for (uint256 i=0; i<signatures.length; i++) {\n            address signerAddress = recover(signedMessage, signatures[i]);\n            if (!validators[signerAddress]) return false;\n            if (i > 0) {\n                if (!checkUnique(signerAddress, signers)) return false;\n            }\n            signers[i] = signerAddress;\n        }\n        return true;\n    }\n    \n    function checkUnique(address signer, address[] memory allSigners) private pure returns (bool) {\n        for (uint256 i=0; i < allSigners.length; i++) {\n            if (signer == allSigners[i]) {\n                return false;\n            }\n        }\n        return true;\n    }\n\n    // DEV function, remove in future\n    function getSigner(SwapMessage memory transferInfo, bytes memory signature) public pure returns (address) {\n        bytes32 hashedMessage = hashMessage(transferInfo);\n        address signerAddress = recover(hashedMessage, signature);\n        return signerAddress;\n    }\n    \n    function updateDailyLimit(address asset) private {\n        uint256 currentTime = block.timestamp;\n        if (currentTime.sub(dailyLimitSetTime[asset]) > 86400) {  // we don't check dailyLimitSetTime on zero because if execution came here token already in tokens mapp and dailyLimitSetTime also filled\n            dailyLimitSetTime[asset] = currentTime;\n            dailySpend[asset] = 0;\n        }\n    }\n    \n    function makeSwap(SwapMessage memory transferInfo) private returns (bool) {\n        uint assetDailyLimit = dailyLimit[transferInfo.asset];\n        \n        require(assetDailyLimit > 0, \"Can't transfer asset without daily limit\");\n        \n        updateDailyLimit(transferInfo.asset);\n        \n        require(transferInfo.amount.add(dailySpend[transferInfo.asset]) <= assetDailyLimit, \"Daily limit has already reached for this asset\");\n\n        dailySpend[transferInfo.asset] = dailySpend[transferInfo.asset].add(transferInfo.amount);\n        \n        if (transferInfo.asset == address(0)) {\n            uint256 amountToSend = transferInfo.amount.sub(transferInfo.amount.mul(fee).div(100));\n            require(transferInfo.receiver.send(amountToSend), \"Error while transfer coins to the receiver\");\n        } else {\n            uint256 amountToSend = transferInfo.amount.sub(transferInfo.amount.mul(fee).div(100));\n            IERC20 assetContract = IERC20(transferInfo.asset);\n            require(assetContract.mint(transferInfo.receiver, amountToSend), \"Error while mint tokens for the receiver\");\n        }\n        return true;\n    }\n    \n    function requestSwap(SwapMessage memory transferInfo, bytes[] memory signatures) public onlyWorker() returns (bool) {\n        require(checkExpirationTime(transferInfo.timestamp), \"Transaction can't be sent because of expiration time\");\n\n        require(this.checkAsset(transferInfo.asset), \"Unknown asset is trying to transfer\");\n        \n        require(transferInfo.receiver == address(transferInfo.receiver),\"Invalid receiver address\");\n        \n        require(signatures.length >= signatureThreshold && signatures.length <= maxvalidatorCount, \"Wrong count of signatures to make transfer\");\n        \n        bytes32 signedMessage = this.hashMessage(transferInfo);\n        require(verifySignatures(signedMessage, signatures), \"Signatures verification is failed\");\n        \n        bool res = makeSwap(transferInfo);\n        return res;\n    }\n\n    function transferCoin(string memory receiver) public payable {\n        require(msg.value > 0, \"You have to attach some amount of assets to make transfer\");\n        transferNonce++;\n        emit Transfer(receiver, msg.sender, msg.value, address(0), transferNonce, block.timestamp);\n    }\n    \n    function transferToken(string memory receiver, uint amount, address asset) public {\n        require(this.checkAsset(asset), \"Unknown asset is trying to transfer\");\n        IERC20 assetContract = IERC20(asset);\n        require(assetContract.balanceOf(msg.sender) >= amount, \"Sender doesn't have enough tokens to make transfer\");\n        require(assetContract.burn(msg.sender, amount), \"Error while burn sender's tokens\");\n        transferNonce++;\n        \n        emit Transfer(receiver, msg.sender, amount, asset, transferNonce, block.timestamp);\n    }\n\n    /**\n     * @dev Returns the address that signed a hashed message (`hash`) with\n     * `signature`. This address can then be used for verification purposes.\n     *\n     * The `ecrecover` EVM opcode allows for malleable (non-unique) signatures:\n     * this function rejects them by requiring the `s` value to be in the lower\n     * half order, and the `v` value to be either 27 or 28.\n     *\n     * IMPORTANT: `hash` _must_ be the result of a hash operation for the\n     * verification to be secure: it is possible to craft signatures that\n     * recover to arbitrary addresses for non-hashed data. A safe way to ensure\n     * this is by receiving a hash of the original message (which may otherwise\n     * be too long), and then calling {toEthSignedMessageHash} on it.\n     */\n    function recover(bytes32 hash, bytes memory signature) internal pure returns (address) {\n        // Check the signature length\n        if (signature.length != 65) {\n            revert(\"ECDSA: invalid signature length\");\n        }\n\n        // Divide the signature in r, s and v variables\n        bytes32 r;\n        bytes32 s;\n        uint8 v;\n\n        // ecrecover takes the signature parameters, and the only way to get them\n        // currently is to use assembly.\n        // solhint-disable-next-line no-inline-assembly\n        assembly {\n            r := mload(add(signature, 0x20))\n            s := mload(add(signature, 0x40))\n            v := byte(0, mload(add(signature, 0x60)))\n        }\n\n        // EIP-2 still allows signature malleability for ecrecover(). Remove this possibility and make the signature\n        // unique. Appendix F in the Ethereum Yellow paper (https://ethereum.github.io/yellowpaper/paper.pdf), defines\n        // the valid range for s in (281): 0 < s < secp256k1n  2 + 1, and for v in (282): v  {27, 28}. Most\n        // signatures from current libraries generate a unique signature with an s-value in the lower half order.\n        //\n        // If your library generates malleable signatures, such as s-values in the upper range, calculate a new s-value\n        // with 0xFFFFFFFFFFFFFFFFFFFFFFFFFFFFFFFEBAAEDCE6AF48A03BBFD25E8CD0364141 - s1 and flip v from 27 to 28 or\n        // vice versa. If your library also generates signatures with 0/1 for v instead 27/28, add 27 to v to accept\n        // these malleable signatures as well.\n        if (uint256(s) > 0x7FFFFFFFFFFFFFFFFFFFFFFFFFFFFFFF5D576E7357A4501DDFE92F46681B20A0) {\n            revert(\"ECDSA: invalid signature 's' value\");\n        }\n\n        if (v != 27 && v != 28) {\n            revert(\"ECDSA: invalid signature 'v' value\");\n        }\n\n        // If the signature is valid (and not malleable), return the signer address\n        address signer = ecrecover(hash, v, r, s);\n        require(signer != address(0), \"ECDSA: invalid signature\");\n\n        return signer;\n    }\n}",
  "sourcePath": "/home/s/WorkWorkspace/harmony_smart_contracts/contracts/HarmonyBridge.sol",
  "compiler": {
    "name": "solc",
    "version": "0.6.0+commit.26b70077.Emscripten.clang"
  },
  "schemaVersion": "3.0.23",
  "updatedAt": "2020-11-04T12:08:53.109Z",
  "devdoc": {
    "methods": {}
  },
  "userdoc": {
    "methods": {}
  }
}